{
  "address": "0x88a0b5C0AACBF567400B29632aA90b81e9a2f01f",
  "abi": [
    {
      "inputs": [
        {
          "internalType": "address",
          "name": "_trustedForwarder",
          "type": "address"
        },
        {
          "internalType": "address",
          "name": "_passkeyVerifier",
          "type": "address"
        },
        {
          "internalType": "address",
          "name": "_recoveryVerifier",
          "type": "address"
        }
      ],
      "stateMutability": "nonpayable",
      "type": "constructor"
    },
    {
      "inputs": [],
      "name": "CELESTIAL_IMPLEMENTATION",
      "outputs": [
        {
          "internalType": "contract Celestial",
          "name": "",
          "type": "address"
        }
      ],
      "stateMutability": "view",
      "type": "function"
    },
    {
      "inputs": [
        {
          "internalType": "string",
          "name": "",
          "type": "string"
        }
      ],
      "name": "CelestialNameToDetails",
      "outputs": [
        {
          "internalType": "address",
          "name": "walletAddress",
          "type": "address"
        },
        {
          "internalType": "bool",
          "name": "isUsed",
          "type": "bool"
        }
      ],
      "stateMutability": "view",
      "type": "function"
    },
    {
      "inputs": [
        {
          "internalType": "string",
          "name": "name",
          "type": "string"
        },
        {
          "internalType": "bytes32",
          "name": "passwordHash",
          "type": "bytes32"
        },
        {
          "internalType": "bytes32",
          "name": "recoveryHash",
          "type": "bytes32"
        },
        {
          "internalType": "uint256",
          "name": "salt",
          "type": "uint256"
        }
      ],
      "name": "createAccount",
      "outputs": [
        {
          "internalType": "contract Celestial",
          "name": "ret",
          "type": "address"
        }
      ],
      "stateMutability": "nonpayable",
      "type": "function"
    },
    {
      "inputs": [
        {
          "internalType": "string",
          "name": "name",
          "type": "string"
        },
        {
          "internalType": "bytes",
          "name": "proof",
          "type": "bytes"
        },
        {
          "internalType": "address[]",
          "name": "dests",
          "type": "address[]"
        },
        {
          "internalType": "uint256[]",
          "name": "values",
          "type": "uint256[]"
        },
        {
          "internalType": "bytes[]",
          "name": "funcs",
          "type": "bytes[]"
        }
      ],
      "name": "executeCelestialBatchTx",
      "outputs": [
        {
          "internalType": "bool",
          "name": "",
          "type": "bool"
        }
      ],
      "stateMutability": "nonpayable",
      "type": "function"
    },
    {
      "inputs": [
        {
          "internalType": "string",
          "name": "name",
          "type": "string"
        },
        {
          "internalType": "bytes",
          "name": "proof",
          "type": "bytes"
        },
        {
          "internalType": "bytes32",
          "name": "_recoveryHash",
          "type": "bytes32"
        }
      ],
      "name": "executeCelestialChangeRecovery",
      "outputs": [
        {
          "internalType": "bool",
          "name": "",
          "type": "bool"
        }
      ],
      "stateMutability": "nonpayable",
      "type": "function"
    },
    {
      "inputs": [
        {
          "internalType": "string",
          "name": "name",
          "type": "string"
        },
        {
          "internalType": "bytes",
          "name": "proof",
          "type": "bytes"
        },
        {
          "internalType": "bytes32",
          "name": "_passwordHash",
          "type": "bytes32"
        }
      ],
      "name": "executeCelestialPasskeyRecovery",
      "outputs": [
        {
          "internalType": "bool",
          "name": "",
          "type": "bool"
        }
      ],
      "stateMutability": "nonpayable",
      "type": "function"
    },
    {
      "inputs": [
        {
          "internalType": "string",
          "name": "name",
          "type": "string"
        },
        {
          "internalType": "bytes",
          "name": "proof",
          "type": "bytes"
        },
        {
          "internalType": "address",
          "name": "dest",
          "type": "address"
        },
        {
          "internalType": "uint256",
          "name": "value",
          "type": "uint256"
        },
        {
          "internalType": "bytes",
          "name": "func",
          "type": "bytes"
        }
      ],
      "name": "executeCelestialTx",
      "outputs": [
        {
          "internalType": "bool",
          "name": "",
          "type": "bool"
        }
      ],
      "stateMutability": "nonpayable",
      "type": "function"
    },
    {
      "inputs": [
        {
          "internalType": "bytes32",
          "name": "passwordHash",
          "type": "bytes32"
        },
        {
          "internalType": "bytes32",
          "name": "recoveryHash",
          "type": "bytes32"
        },
        {
          "internalType": "uint256",
          "name": "salt",
          "type": "uint256"
        }
      ],
      "name": "getAddress",
      "outputs": [
        {
          "internalType": "address",
          "name": "",
          "type": "address"
        }
      ],
      "stateMutability": "view",
      "type": "function"
    },
    {
      "inputs": [
        {
          "internalType": "string",
          "name": "name",
          "type": "string"
        }
      ],
      "name": "getCelestial",
      "outputs": [
        {
          "components": [
            {
              "internalType": "address",
              "name": "walletAddress",
              "type": "address"
            },
            {
              "internalType": "bool",
              "name": "isUsed",
              "type": "bool"
            }
          ],
          "internalType": "struct CelestialStorage.CelestialDetails",
          "name": "",
          "type": "tuple"
        }
      ],
      "stateMutability": "view",
      "type": "function"
    },
    {
      "inputs": [
        {
          "internalType": "address",
          "name": "forwarder",
          "type": "address"
        }
      ],
      "name": "isTrustedForwarder",
      "outputs": [
        {
          "internalType": "bool",
          "name": "",
          "type": "bool"
        }
      ],
      "stateMutability": "view",
      "type": "function"
    }
  ],
  "transactionHash": "0x5501ba3404bc5c67a1800b81348bcf67bd378617ac8cb28514f1ebbfa97b5102",
  "args": [
    "0xcbd8ef2d15e11fc65793e693d7d11e918fafa5d6",
    "0x50f1bbb486d62921ed9ce411c6b85ec0b73d9130",
    "0xf1e842ef0774dbe7caf7f0f95d1315fd834d2a4b"
  ],
  "numDeployments": 2,
  "solcInputHash": "7ee10287debc3e6ceb5592f9f8a2608c",
  "bytecode": "0x60c06040523480156200001157600080fd5b5060405162002fb238038062002fb28339810160408190526200003491620000d4565b6001600160a01b0383166080526040513090839083906200005590620000a9565b6001600160a01b03938416815291831660208301529091166040820152606001604051809103906000f08015801562000092573d6000803e3d6000fd5b506001600160a01b031660a052506200011e915050565b6115e680620019cc83390190565b80516001600160a01b0381168114620000cf57600080fd5b919050565b600080600060608486031215620000ea57600080fd5b620000f584620000b7565b92506200010560208501620000b7565b91506200011560408501620000b7565b90509250925092565b60805160a05161187a62000152600039600081816101100152818161066401526107d001526000610425015261187a6000f3fe60806040523480156200001157600080fd5b5060043610620000ab5760003560e01c80639ceac563116200006e5780639ceac5631462000162578063becd18aa14620001a0578063d9e374ef14620001b7578063dc55776f146200021a578063f936d15b146200023157600080fd5b80631a095c6014620000b057806347f7d84d14620000dc578063572b6c0514620000f35780636ff56aa4146200010a57806395083b73146200014b575b600080fd5b620000c7620000c136600462000ac5565b62000248565b60405190151581526020015b60405180910390f35b620000c7620000ed36600462000bcb565b62000337565b620000c76200010436600462000cc6565b62000423565b620001327f000000000000000000000000000000000000000000000000000000000000000081565b6040516001600160a01b039091168152602001620000d3565b620000c76200015c36600462000ce4565b62000455565b620001796200017336600462000d5b565b62000532565b6040805182516001600160a01b0316815260209283015115159281019290925201620000d3565b620000c7620001b136600462000ce4565b62000597565b620001fa620001c836600462000d5b565b80516020818301810180516000825292820191909301209152546001600160a01b03811690600160a01b900460ff1682565b604080516001600160a01b039093168352901515602083015201620000d3565b620001326200022b36600462000d94565b62000623565b620001326200024236600462000dc1565b62000706565b6000620002553362000423565b6200027d5760405162461bcd60e51b8152600401620002749062000e19565b60405180910390fd5b87620002898162000870565b6000808a6040516200029c919062000e88565b9081526040519081900360200181205463775a5d7f60e11b82526001600160a01b03169150819063eeb4bafe90620002e3908c908c908c908c908c908c9060040162000ecf565b6020604051808303816000875af115801562000303573d6000803e3d6000fd5b505050506040513d601f19601f8201168201806040525081019062000329919062000f1d565b9a9950505050505050505050565b6000620003443362000423565b620003635760405162461bcd60e51b8152600401620002749062000e19565b896200036f8162000870565b6000808c60405162000382919062000e88565b90815260405190819003602001812054637659accb60e01b82526001600160a01b031691508190637659accb90620003cd908e908e908e908e908e908e908e908e9060040162000fda565b6020604051808303816000875af1158015620003ed573d6000803e3d6000fd5b505050506040513d601f19601f8201168201806040525081019062000413919062000f1d565b9c9b505050505050505050505050565b7f00000000000000000000000000000000000000000000000000000000000000006001600160a01b0390811691161490565b6000620004623362000423565b620004815760405162461bcd60e51b8152600401620002749062000e19565b846200048d8162000870565b60008087604051620004a0919062000e88565b9081526040519081900360200181205463277c3bc360e11b82526001600160a01b031691508190634ef8778690620004e19089908990899060040162001080565b6020604051808303816000875af115801562000501573d6000803e3d6000fd5b505050506040513d601f19601f8201168201806040525081019062000527919062000f1d565b979650505050505050565b60408051808201909152600080825260208201526000808360405162000559919062000e88565b90815260408051918290036020908101832083830190925290546001600160a01b038116835260ff600160a01b909104161515908201529392505050565b6000620005a43362000423565b620005c35760405162461bcd60e51b8152600401620002749062000e19565b84620005cf8162000870565b60008087604051620005e2919062000e88565b90815260405190819003602001812054636a38d70360e01b82526001600160a01b031691508190636a38d70390620004e19089908990899060040162001080565b6000620006fe8260001b604051806020016200063f90620009a3565b601f1982820381018352601f90910116604081905260248101889052604481018790527f00000000000000000000000000000000000000000000000000000000000000009060640160408051601f19818403018152918152602080830180516001600160e01b03166337b709c360e21b1790529051620006c293929101620010a6565b60408051601f1981840301815290829052620006e29291602001620010ea565b60405160208183030381529060405280519060200120620008ee565b949350505050565b6000808560405162000719919062000e88565b9081526040519081900360200190205460ff600160a01b90910416156200078f5760405162461bcd60e51b815260206004820152602360248201527f43656c65737469616c3a2043656c65737469616c20616c72656164792065786960448201526273747360e81b606482015260840162000274565b60006200079e85858562000623565b90506001600160a01b0381163b8015620007bb57509050620006fe565b604051602481018790526044810186905284907f00000000000000000000000000000000000000000000000000000000000000009060640160408051601f198184030181529181526020820180516001600160e01b03166337b709c360e21b179052516200082990620009a3565b62000836929190620010a6565b8190604051809103906000f590508015801562000857573d6000803e3d6000fd5b50925062000866878462000904565b5050949350505050565b60008160405162000882919062000e88565b9081526040519081900360200190205460ff600160a01b90910416620008eb5760405162461bcd60e51b815260206004820152601c60248201527f43656c65737469616c3a20496e76616c69642043656c65737469616c00000000604482015260640162000274565b50565b6000620008fd83833062000979565b9392505050565b6040805180820182526001600160a01b03831681526001602082015290516000906200093290859062000e88565b908152604051602091819003820190208251815493909201516001600160a01b039092166001600160a81b031990931692909217600160a01b911515919091021790555050565b6000604051836040820152846020820152828152600b8101905060ff815360559020949350505050565b610727806200111e83390190565b634e487b7160e01b600052604160045260246000fd5b600082601f830112620009d957600080fd5b813567ffffffffffffffff80821115620009f757620009f7620009b1565b604051601f8301601f19908116603f0116810190828211818310171562000a225762000a22620009b1565b8160405283815286602085880101111562000a3c57600080fd5b836020870160208301376000602085830101528094505050505092915050565b60008083601f84011262000a6f57600080fd5b50813567ffffffffffffffff81111562000a8857600080fd5b60208301915083602082850101111562000aa157600080fd5b9250929050565b80356001600160a01b038116811462000ac057600080fd5b919050565b600080600080600080600060a0888a03121562000ae157600080fd5b873567ffffffffffffffff8082111562000afa57600080fd5b62000b088b838c01620009c7565b985060208a013591508082111562000b1f57600080fd5b62000b2d8b838c0162000a5c565b909850965086915062000b4360408b0162000aa8565b955060608a0135945060808a013591508082111562000b6157600080fd5b5062000b708a828b0162000a5c565b989b979a50959850939692959293505050565b60008083601f84011262000b9657600080fd5b50813567ffffffffffffffff81111562000baf57600080fd5b6020830191508360208260051b850101111562000aa157600080fd5b600080600080600080600080600060a08a8c03121562000bea57600080fd5b893567ffffffffffffffff8082111562000c0357600080fd5b62000c118d838e01620009c7565b9a5060208c013591508082111562000c2857600080fd5b62000c368d838e0162000a5c565b909a50985060408c013591508082111562000c5057600080fd5b62000c5e8d838e0162000b83565b909850965060608c013591508082111562000c7857600080fd5b62000c868d838e0162000b83565b909650945060808c013591508082111562000ca057600080fd5b5062000caf8c828d0162000b83565b915080935050809150509295985092959850929598565b60006020828403121562000cd957600080fd5b620008fd8262000aa8565b6000806000806060858703121562000cfb57600080fd5b843567ffffffffffffffff8082111562000d1457600080fd5b62000d2288838901620009c7565b9550602087013591508082111562000d3957600080fd5b5062000d488782880162000a5c565b9598909750949560400135949350505050565b60006020828403121562000d6e57600080fd5b813567ffffffffffffffff81111562000d8657600080fd5b620006fe84828501620009c7565b60008060006060848603121562000daa57600080fd5b505081359360208301359350604090920135919050565b6000806000806080858703121562000dd857600080fd5b843567ffffffffffffffff81111562000df057600080fd5b62000dfe87828801620009c7565b97602087013597506040870135966060013595509350505050565b60208082526029908201527f56555a493a2063616c6c6572206973206e6f74207468652074727573746564206040820152683337b93bb0b93232b960b91b606082015260800190565b60005b8381101562000e7f57818101518382015260200162000e65565b50506000910152565b6000825162000e9c81846020870162000e62565b9190910192915050565b81835281816020850137506000828201602090810191909152601f909101601f19169091010190565b60808152600062000ee560808301888a62000ea6565b6001600160a01b038716602084015260408301869052828103606084015262000f1081858762000ea6565b9998505050505050505050565b60006020828403121562000f3057600080fd5b81518015158114620008fd57600080fd5b81835260006020808501808196508560051b810191508460005b8781101562000fcd5782840389528135601e1988360301811262000f7e57600080fd5b8701858101903567ffffffffffffffff81111562000f9b57600080fd5b80360382131562000fab57600080fd5b62000fb886828462000ea6565b9a87019a955050509084019060010162000f5b565b5091979650505050505050565b60808152600062000ff0608083018a8c62000ea6565b8281036020848101919091528882528991810160005b8a81101562001036576001600160a01b03620010228562000aa8565b168252928201929082019060010162001006565b5084810360408601528781526001600160fb1b038811156200105757600080fd5b8760051b9250828983830137909101838103820160608501529062000413818301868862000f41565b6040815260006200109660408301858762000ea6565b9050826020830152949350505050565b60018060a01b03831681526040602082015260008251806040840152620010d581606085016020870162000e62565b601f01601f1916919091016060019392505050565b60008351620010fe81846020880162000e62565b8351908301906200111481836020880162000e62565b0194935050505056fe608060405260405161072738038061072783398101604081905261002291610319565b61002e82826000610035565b5050610436565b61003e8361006b565b60008251118061004b5750805b156100665761006483836100ab60201b6100291760201c565b505b505050565b610074816100d7565b6040516001600160a01b038216907fbc7cd75a20ee27fd9adebab32041f755214dbc6bffa90cc0225b39da2e5c2d3b90600090a250565b60606100d08383604051806060016040528060278152602001610700602791396101a9565b9392505050565b6100ea8161022260201b6100551760201c565b6101515760405162461bcd60e51b815260206004820152602d60248201527f455243313936373a206e657720696d706c656d656e746174696f6e206973206e60448201526c1bdd08184818dbdb9d1c9858dd609a1b60648201526084015b60405180910390fd5b806101887f360894a13ba1a3210667c828492db98dca3e2076cc3735a920a3ca505d382bbc60001b61023160201b6100641760201c565b80546001600160a01b0319166001600160a01b039290921691909117905550565b6060600080856001600160a01b0316856040516101c691906103e7565b600060405180830381855af49150503d8060008114610201576040519150601f19603f3d011682016040523d82523d6000602084013e610206565b606091505b50909250905061021886838387610234565b9695505050505050565b6001600160a01b03163b151590565b90565b606083156102a357825160000361029c576001600160a01b0385163b61029c5760405162461bcd60e51b815260206004820152601d60248201527f416464726573733a2063616c6c20746f206e6f6e2d636f6e74726163740000006044820152606401610148565b50816102ad565b6102ad83836102b5565b949350505050565b8151156102c55781518083602001fd5b8060405162461bcd60e51b81526004016101489190610403565b634e487b7160e01b600052604160045260246000fd5b60005b838110156103105781810151838201526020016102f8565b50506000910152565b6000806040838503121561032c57600080fd5b82516001600160a01b038116811461034357600080fd5b60208401519092506001600160401b038082111561036057600080fd5b818501915085601f83011261037457600080fd5b815181811115610386576103866102df565b604051601f8201601f19908116603f011681019083821181831017156103ae576103ae6102df565b816040528281528860208487010111156103c757600080fd5b6103d88360208301602088016102f5565b80955050505050509250929050565b600082516103f98184602087016102f5565b9190910192915050565b60208152600082518060208401526104228160408501602087016102f5565b601f01601f19169190910160400192915050565b6102bb806104456000396000f3fe60806040523661001357610011610017565b005b6100115b610027610022610067565b61009f565b565b606061004e838360405180606001604052806027815260200161025f602791396100c3565b9392505050565b6001600160a01b03163b151590565b90565b600061009a7f360894a13ba1a3210667c828492db98dca3e2076cc3735a920a3ca505d382bbc546001600160a01b031690565b905090565b3660008037600080366000845af43d6000803e8080156100be573d6000f35b3d6000fd5b6060600080856001600160a01b0316856040516100e0919061020f565b600060405180830381855af49150503d806000811461011b576040519150601f19603f3d011682016040523d82523d6000602084013e610120565b606091505b50915091506101318683838761013b565b9695505050505050565b606083156101af5782516000036101a8576001600160a01b0385163b6101a85760405162461bcd60e51b815260206004820152601d60248201527f416464726573733a2063616c6c20746f206e6f6e2d636f6e747261637400000060448201526064015b60405180910390fd5b50816101b9565b6101b983836101c1565b949350505050565b8151156101d15781518083602001fd5b8060405162461bcd60e51b815260040161019f919061022b565b60005b838110156102065781810151838201526020016101ee565b50506000910152565b600082516102218184602087016101eb565b9190910192915050565b602081526000825180602084015261024a8160408501602087016101eb565b601f01601f1916919091016040019291505056fe416464726573733a206c6f772d6c6576656c2064656c65676174652063616c6c206661696c6564a2646970667358221220df5e088a16650cdc3010db20ecd1e2b26729605480c947e2f8d77aac24e8ff8464736f6c63430008110033416464726573733a206c6f772d6c6576656c2064656c65676174652063616c6c206661696c6564a26469706673582212203f2470c04963f6dc3f34f4b7ba69c482496dd15cf524094cb9d7834fa935ff9464736f6c6343000811003360e06040523480156200001157600080fd5b50604051620015e6380380620015e683398101604081905262000034916200006f565b6001600160a01b0392831660805290821660a0521660c052620000b9565b80516001600160a01b03811681146200006a57600080fd5b919050565b6000806000606084860312156200008557600080fd5b620000908462000052565b9250620000a06020850162000052565b9150620000b06040850162000052565b90509250925092565b60805160a05160c0516114ef620000f7600039600081816102ed01526104ae01526000818161024d015261066e015260006102b901526114ef6000f3fe6080604052600436106101005760003560e01c80638315ed851161008f578063bc197c8111610061578063bc197c811461030f578063d087d2881461033e578063dedc270c14610353578063eeb4bafe14610373578063f23a6e611461038657005b80638315ed851461023b5780638ee06ddd1461028757806394dacaaa146102a7578063a8b56de2146102db57005b80634ef87786116100d35780634ef87786146101cc5780636102495c146101df57806364ddaf19146101f55780636a38d703146102155780637659accb1461022857005b806223de291461010957806301ffc9a71461012e578063150b7a02146101635780632f12313f146101a857005b3661010757005b005b34801561011557600080fd5b50610107610124366004610e4e565b5050505050505050565b34801561013a57600080fd5b5061014e610149366004610ef9565b6103b3565b60405190151581526020015b60405180910390f35b34801561016f57600080fd5b5061018f61017e366004610f2a565b630a85bd0160e11b95945050505050565b6040516001600160e01b0319909116815260200161015a565b3480156101b457600080fd5b506101be60015481565b60405190815260200161015a565b61014e6101da366004610f99565b610405565b3480156101eb57600080fd5b506101be60025481565b34801561020157600080fd5b5061014e610210366004610fe5565b610468565b61014e610223366004610f99565b610531565b61014e61023636600461106c565b610585565b34801561024757600080fd5b5061026f7f000000000000000000000000000000000000000000000000000000000000000081565b6040516001600160a01b03909116815260200161015a565b34801561029357600080fd5b5061014e6102a2366004610fe5565b6105ec565b3480156102b357600080fd5b5061026f7f000000000000000000000000000000000000000000000000000000000000000081565b3480156102e757600080fd5b5061026f7f000000000000000000000000000000000000000000000000000000000000000081565b34801561031b57600080fd5b5061018f61032a36600461111c565b63bc197c8160e01b98975050505050505050565b34801561034a57600080fd5b506003546101be565b34801561035f57600080fd5b5061010761036e3660046111b6565b6106f0565b61014e6103813660046111d8565b610805565b34801561039257600080fd5b5061018f6103a1366004611265565b63f23a6e6160e01b9695505050505050565b60006001600160e01b03198216630a85bd0160e11b14806103e457506001600160e01b03198216630271189760e51b145b806103ff57506001600160e01b031982166301ffc9a760e01b145b92915050565b60006104118484610868565b6104555760405162461bcd60e51b815260206004820152601060248201526f496e76616c6964207265636f7665727960801b60448201526064015b60405180910390fd5b61045e82600155565b5060019392505050565b60008061048461047f61047a60035490565b610882565b610915565b9050600061049482600254610996565b604051633a94343960e21b81529091506001600160a01b037f0000000000000000000000000000000000000000000000000000000000000000169063ea50d0e4906104e7908890889086906004016112cb565b602060405180830381865afa158015610504573d6000803e3d6000fd5b505050506040513d601f19601f820116820180604052508101906105289190611344565b95945050505050565b600061053d8484610868565b61057c5760405162461bcd60e51b815260206004820152601060248201526f496e76616c6964207265636f7665727960801b604482015260640161044c565b61045e82600255565b60006105918989610a73565b6105cf5760405162461bcd60e51b815260206004820152600f60248201526e496e76616c696420706173736b657960881b604482015260640161044c565b6105dd878787878787610ac9565b50600198975050505050505050565b60408051600280825260608201835260009283929190602083019080368337019050509050600154816000815181106106275761062761137c565b60209081029190910101526003545b60001b8160018151811061064c5761064c61137c565b6020908102919091010152604051633a94343960e21b81526001600160a01b037f0000000000000000000000000000000000000000000000000000000000000000169063ea50d0e4906106a7908790879086906004016112cb565b602060405180830381865afa1580156106c4573d6000803e3d6000fd5b505050506040513d601f19601f820116820180604052508101906106e89190611344565b949350505050565b600054610100900460ff16158080156107105750600054600160ff909116105b8061072a5750303b15801561072a575060005460ff166001145b61078d5760405162461bcd60e51b815260206004820152602e60248201527f496e697469616c697a61626c653a20636f6e747261637420697320616c72656160448201526d191e481a5b9a5d1a585b1a5e995960921b606482015260840161044c565b6000805460ff1916600117905580156107b0576000805461ff0019166101001790555b600183905560028290558015610800576000805461ff0019169055604051600181527f7f26b83ff96e1f2b6a682f133852f6798a09c465da95921460cefb38474024989060200160405180910390a15b505050565b60006108118787610a73565b61084f5760405162461bcd60e51b815260206004820152600f60248201526e496e76616c696420706173736b657960881b604482015260640161044c565b61085b85858585610c53565b5060019695505050505050565b60008061048461047f61047a600380546001810190915590565b6060600061088f83610c9a565b600101905060008167ffffffffffffffff8111156108af576108af611366565b6040519080825280601f01601f1916602001820160405280156108d9576020820181803683370190505b5090508181016020015b600019016f181899199a1a9b1b9c1cb0b131b232b360811b600a86061a8153600a85049450846108e357509392505050565b6000806040518060400160405280601a81526020017f19457468657265756d205369676e6564204d6573736167653a0a0000000000008152509050600061095c8451610882565b90506000828286604051602001610975939291906113b6565b60408051601f19818403018152919052805160209091012095945050505050565b604080518181526108208101825260609160009190602082016108008036833701905050905060005b6020811015610a10576109e18582602081106109dd576109dd61137c565b1a90565b8282815181106109f3576109f361137c565b602090810291909101015280610a088161140f565b9150506109bf565b5060005b6020811015610a6b57610a328482602081106109dd576109dd61137c565b82610a3e836020611428565b81518110610a4e57610a4e61137c565b602090810291909101015280610a638161140f565b915050610a14565b509392505050565b6040805160028082526060820183526000928392919060208301908036833701905050905060015481600081518110610aae57610aae61137c565b60209081029190910101526003805460018101909155610636565b8481148015610adf5750821580610adf57508281145b610b215760405162461bcd60e51b815260206004820152601360248201527277726f6e67206172726179206c656e6774687360681b604482015260640161044c565b6000839003610bd75760005b85811015610bd157610bbf878783818110610b4a57610b4a61137c565b9050602002016020810190610b5f919061143b565b6000858585818110610b7357610b7361137c565b9050602002810190610b859190611456565b8080601f016020809104026020016040519081016040528093929190818152602001838380828437600092019190915250610d7292505050565b80610bc98161140f565b915050610b2d565b50610c4b565b60005b85811015610c4957610c37878783818110610bf757610bf761137c565b9050602002016020810190610c0c919061143b565b868684818110610c1e57610c1e61137c565b90506020020135858585818110610b7357610b7361137c565b80610c418161140f565b915050610bda565b505b505050505050565b610c94848484848080601f016020809104026020016040519081016040528093929190818152602001838380828437600092019190915250610d7292505050565b50505050565b60008072184f03e93ff9f4daa797ed6e38ed64bf6a1f0160401b8310610cd95772184f03e93ff9f4daa797ed6e38ed64bf6a1f0160401b830492506040015b6d04ee2d6d415b85acef81000000008310610d05576d04ee2d6d415b85acef8100000000830492506020015b662386f26fc100008310610d2357662386f26fc10000830492506010015b6305f5e1008310610d3b576305f5e100830492506008015b6127108310610d4f57612710830492506004015b60648310610d61576064830492506002015b600a83106103ff5760010192915050565b600080846001600160a01b03168484604051610d8e919061149d565b60006040518083038185875af1925050503d8060008114610dcb576040519150601f19603f3d011682016040523d82523d6000602084013e610dd0565b606091505b509150915081610de257805160208201fd5b5050505050565b80356001600160a01b0381168114610e0057600080fd5b919050565b60008083601f840112610e1757600080fd5b50813567ffffffffffffffff811115610e2f57600080fd5b602083019150836020828501011115610e4757600080fd5b9250929050565b60008060008060008060008060c0898b031215610e6a57600080fd5b610e7389610de9565b9750610e8160208a01610de9565b9650610e8f60408a01610de9565b955060608901359450608089013567ffffffffffffffff80821115610eb357600080fd5b610ebf8c838d01610e05565b909650945060a08b0135915080821115610ed857600080fd5b50610ee58b828c01610e05565b999c989b5096995094979396929594505050565b600060208284031215610f0b57600080fd5b81356001600160e01b031981168114610f2357600080fd5b9392505050565b600080600080600060808688031215610f4257600080fd5b610f4b86610de9565b9450610f5960208701610de9565b935060408601359250606086013567ffffffffffffffff811115610f7c57600080fd5b610f8888828901610e05565b969995985093965092949392505050565b600080600060408486031215610fae57600080fd5b833567ffffffffffffffff811115610fc557600080fd5b610fd186828701610e05565b909790965060209590950135949350505050565b60008060208385031215610ff857600080fd5b823567ffffffffffffffff81111561100f57600080fd5b61101b85828601610e05565b90969095509350505050565b60008083601f84011261103957600080fd5b50813567ffffffffffffffff81111561105157600080fd5b6020830191508360208260051b8501011115610e4757600080fd5b6000806000806000806000806080898b03121561108857600080fd5b883567ffffffffffffffff808211156110a057600080fd5b6110ac8c838d01610e05565b909a50985060208b01359150808211156110c557600080fd5b6110d18c838d01611027565b909850965060408b01359150808211156110ea57600080fd5b6110f68c838d01611027565b909650945060608b013591508082111561110f57600080fd5b50610ee58b828c01611027565b60008060008060008060008060a0898b03121561113857600080fd5b61114189610de9565b975061114f60208a01610de9565b9650604089013567ffffffffffffffff8082111561116c57600080fd5b6111788c838d01611027565b909850965060608b013591508082111561119157600080fd5b61119d8c838d01611027565b909650945060808b0135915080821115610ed857600080fd5b600080604083850312156111c957600080fd5b50508035926020909101359150565b600080600080600080608087890312156111f157600080fd5b863567ffffffffffffffff8082111561120957600080fd5b6112158a838b01610e05565b909850965086915061122960208a01610de9565b955060408901359450606089013591508082111561124657600080fd5b5061125389828a01610e05565b979a9699509497509295939492505050565b60008060008060008060a0878903121561127e57600080fd5b61128787610de9565b955061129560208801610de9565b94506040870135935060608701359250608087013567ffffffffffffffff8111156112bf57600080fd5b61125389828a01610e05565b60408152826040820152828460608301376000606084830101526000601f19601f8501168201606081016020606085840301818601528186518084526080850191508288019450600093505b808410156113375784518252938201936001939093019290820190611317565b5098975050505050505050565b60006020828403121561135657600080fd5b81518015158114610f2357600080fd5b634e487b7160e01b600052604160045260246000fd5b634e487b7160e01b600052603260045260246000fd5b60005b838110156113ad578181015183820152602001611395565b50506000910152565b600084516113c8818460208901611392565b8451908301906113dc818360208901611392565b84519101906113ef818360208801611392565b0195945050505050565b634e487b7160e01b600052601160045260246000fd5b600060018201611421576114216113f9565b5060010190565b808201808211156103ff576103ff6113f9565b60006020828403121561144d57600080fd5b610f2382610de9565b6000808335601e1984360301811261146d57600080fd5b83018035915067ffffffffffffffff82111561148857600080fd5b602001915036819003821315610e4757600080fd5b600082516114af818460208701611392565b919091019291505056fea2646970667358221220b1bf42ec74893655a5120436941dec201375eeff3a0978ecff937c61ed52672d64736f6c63430008110033",
  "devdoc": {
    "kind": "dev",
    "methods": {},
    "version": 1
  },
  "userdoc": {
    "kind": "user",
    "methods": {},
    "version": 1
  },
  "storageLayout": {
    "storage": [
      {
        "astId": 3430,
        "contract": "contracts/CelestialFactory.sol:CelestialFactory",
        "label": "CelestialNameToDetails",
        "offset": 0,
        "slot": "0",
        "type": "t_mapping(t_string_memory_ptr,t_struct(CelestialDetails)3425_storage)"
      }
    ],
    "types": {
      "t_address": {
        "encoding": "inplace",
        "label": "address",
        "numberOfBytes": "20"
      },
      "t_bool": {
        "encoding": "inplace",
        "label": "bool",
        "numberOfBytes": "1"
      },
      "t_mapping(t_string_memory_ptr,t_struct(CelestialDetails)3425_storage)": {
        "encoding": "mapping",
        "key": "t_string_memory_ptr",
        "label": "mapping(string => struct CelestialStorage.CelestialDetails)",
        "numberOfBytes": "32",
        "value": "t_struct(CelestialDetails)3425_storage"
      },
      "t_string_memory_ptr": {
        "encoding": "bytes",
        "label": "string",
        "numberOfBytes": "32"
      },
      "t_struct(CelestialDetails)3425_storage": {
        "encoding": "inplace",
        "label": "struct CelestialStorage.CelestialDetails",
        "members": [
          {
            "astId": 3422,
            "contract": "contracts/CelestialFactory.sol:CelestialFactory",
            "label": "walletAddress",
            "offset": 0,
            "slot": "0",
            "type": "t_address"
          },
          {
            "astId": 3424,
            "contract": "contracts/CelestialFactory.sol:CelestialFactory",
            "label": "isUsed",
            "offset": 20,
            "slot": "0",
            "type": "t_bool"
          }
        ],
        "numberOfBytes": "32"
      }
    }
  }
}