{
  "address": "0xcbd8EF2d15E11fC65793e693d7D11e918fAfa5D6",
  "abi": [
    {
      "inputs": [
        {
          "internalType": "string",
          "name": "name",
          "type": "string"
        }
      ],
      "stateMutability": "nonpayable",
      "type": "constructor"
    },
    {
      "inputs": [
        {
          "internalType": "uint48",
          "name": "deadline",
          "type": "uint48"
        }
      ],
      "name": "ERC2771ForwarderExpiredRequest",
      "type": "error"
    },
    {
      "inputs": [
        {
          "internalType": "address",
          "name": "signer",
          "type": "address"
        },
        {
          "internalType": "address",
          "name": "from",
          "type": "address"
        }
      ],
      "name": "ERC2771ForwarderInvalidSigner",
      "type": "error"
    },
    {
      "inputs": [
        {
          "internalType": "uint256",
          "name": "requestedValue",
          "type": "uint256"
        },
        {
          "internalType": "uint256",
          "name": "msgValue",
          "type": "uint256"
        }
      ],
      "name": "ERC2771ForwarderMismatchedValue",
      "type": "error"
    },
    {
      "inputs": [
        {
          "internalType": "address",
          "name": "target",
          "type": "address"
        },
        {
          "internalType": "address",
          "name": "forwarder",
          "type": "address"
        }
      ],
      "name": "ERC2771UntrustfulTarget",
      "type": "error"
    },
    {
      "inputs": [
        {
          "internalType": "address",
          "name": "account",
          "type": "address"
        },
        {
          "internalType": "uint256",
          "name": "currentNonce",
          "type": "uint256"
        }
      ],
      "name": "InvalidAccountNonce",
      "type": "error"
    },
    {
      "inputs": [],
      "name": "InvalidShortString",
      "type": "error"
    },
    {
      "inputs": [
        {
          "internalType": "string",
          "name": "str",
          "type": "string"
        }
      ],
      "name": "StringTooLong",
      "type": "error"
    },
    {
      "anonymous": false,
      "inputs": [],
      "name": "EIP712DomainChanged",
      "type": "event"
    },
    {
      "anonymous": false,
      "inputs": [
        {
          "indexed": true,
          "internalType": "address",
          "name": "signer",
          "type": "address"
        },
        {
          "indexed": false,
          "internalType": "uint256",
          "name": "nonce",
          "type": "uint256"
        },
        {
          "indexed": false,
          "internalType": "bool",
          "name": "success",
          "type": "bool"
        }
      ],
      "name": "ExecutedForwardRequest",
      "type": "event"
    },
    {
      "inputs": [],
      "name": "eip712Domain",
      "outputs": [
        {
          "internalType": "bytes1",
          "name": "fields",
          "type": "bytes1"
        },
        {
          "internalType": "string",
          "name": "name",
          "type": "string"
        },
        {
          "internalType": "string",
          "name": "version",
          "type": "string"
        },
        {
          "internalType": "uint256",
          "name": "chainId",
          "type": "uint256"
        },
        {
          "internalType": "address",
          "name": "verifyingContract",
          "type": "address"
        },
        {
          "internalType": "bytes32",
          "name": "salt",
          "type": "bytes32"
        },
        {
          "internalType": "uint256[]",
          "name": "extensions",
          "type": "uint256[]"
        }
      ],
      "stateMutability": "view",
      "type": "function"
    },
    {
      "inputs": [
        {
          "components": [
            {
              "internalType": "address",
              "name": "from",
              "type": "address"
            },
            {
              "internalType": "address",
              "name": "to",
              "type": "address"
            },
            {
              "internalType": "uint256",
              "name": "value",
              "type": "uint256"
            },
            {
              "internalType": "uint256",
              "name": "gas",
              "type": "uint256"
            },
            {
              "internalType": "uint48",
              "name": "deadline",
              "type": "uint48"
            },
            {
              "internalType": "bytes",
              "name": "data",
              "type": "bytes"
            },
            {
              "internalType": "bytes",
              "name": "signature",
              "type": "bytes"
            }
          ],
          "internalType": "struct CelestialForwarder.ForwardRequestData",
          "name": "request",
          "type": "tuple"
        }
      ],
      "name": "execute",
      "outputs": [],
      "stateMutability": "payable",
      "type": "function"
    },
    {
      "inputs": [
        {
          "components": [
            {
              "internalType": "address",
              "name": "from",
              "type": "address"
            },
            {
              "internalType": "address",
              "name": "to",
              "type": "address"
            },
            {
              "internalType": "uint256",
              "name": "value",
              "type": "uint256"
            },
            {
              "internalType": "uint256",
              "name": "gas",
              "type": "uint256"
            },
            {
              "internalType": "uint48",
              "name": "deadline",
              "type": "uint48"
            },
            {
              "internalType": "bytes",
              "name": "data",
              "type": "bytes"
            },
            {
              "internalType": "bytes",
              "name": "signature",
              "type": "bytes"
            }
          ],
          "internalType": "struct CelestialForwarder.ForwardRequestData[]",
          "name": "requests",
          "type": "tuple[]"
        },
        {
          "internalType": "address payable",
          "name": "refundReceiver",
          "type": "address"
        }
      ],
      "name": "executeBatch",
      "outputs": [],
      "stateMutability": "payable",
      "type": "function"
    },
    {
      "inputs": [
        {
          "internalType": "address",
          "name": "owner",
          "type": "address"
        }
      ],
      "name": "nonces",
      "outputs": [
        {
          "internalType": "uint256",
          "name": "",
          "type": "uint256"
        }
      ],
      "stateMutability": "view",
      "type": "function"
    },
    {
      "inputs": [
        {
          "components": [
            {
              "internalType": "address",
              "name": "from",
              "type": "address"
            },
            {
              "internalType": "address",
              "name": "to",
              "type": "address"
            },
            {
              "internalType": "uint256",
              "name": "value",
              "type": "uint256"
            },
            {
              "internalType": "uint256",
              "name": "gas",
              "type": "uint256"
            },
            {
              "internalType": "uint48",
              "name": "deadline",
              "type": "uint48"
            },
            {
              "internalType": "bytes",
              "name": "data",
              "type": "bytes"
            },
            {
              "internalType": "bytes",
              "name": "signature",
              "type": "bytes"
            }
          ],
          "internalType": "struct CelestialForwarder.ForwardRequestData",
          "name": "request",
          "type": "tuple"
        }
      ],
      "name": "verify",
      "outputs": [
        {
          "internalType": "bool",
          "name": "",
          "type": "bool"
        }
      ],
      "stateMutability": "view",
      "type": "function"
    }
  ],
  "transactionHash": "0x88613f7fbbe8f1fac4c78b2250e1850190b78145119b4c0ddc952fd21d644c74",
  "args": [
    "CelestialForwarder"
  ],
  "numDeployments": 1,
  "solcInputHash": "ce67a8a4433ade4aa910bcc99c05dddc",
  "bytecode": "0x6101606040523480156200001257600080fd5b506040516200168a3803806200168a833981016040819052620000359162000201565b80604051806040016040528060018152602001603160f81b8152506200006b6000836200012660201b6200035b1790919060201c565b610120526200008881600162000126602090811b6200035b17901c565b61014052815160208084019190912060e052815190820120610100524660a0526200011660e05161010051604080517f8b73c3c69bb8fe3d512ecc4cf759cc79239f7b179b0ffacaa9a75d522b39400f60208201529081019290925260608201524660808201523060a082015260009060c00160405160208183030381529060405280519060200120905090565b60805250503060c052506200046e565b600060208351101562000146576200013e8362000176565b905062000170565b826200015d83620001c260201b6200038e1760201c565b906200016a908262000348565b5060ff90505b92915050565b600080829050601f81511115620001ad578260405163305a27a960e01b8152600401620001a4919062000414565b60405180910390fd5b8051620001ba8262000449565b179392505050565b90565b634e487b7160e01b600052604160045260246000fd5b60005b83811015620001f8578181015183820152602001620001de565b50506000910152565b6000602082840312156200021457600080fd5b81516001600160401b03808211156200022c57600080fd5b818401915084601f8301126200024157600080fd5b815181811115620002565762000256620001c5565b604051601f8201601f19908116603f01168101908382118183101715620002815762000281620001c5565b816040528281528760208487010111156200029b57600080fd5b620002ae836020830160208801620001db565b979650505050505050565b600181811c90821680620002ce57607f821691505b602082108103620002ef57634e487b7160e01b600052602260045260246000fd5b50919050565b601f8211156200034357600081815260208120601f850160051c810160208610156200031e5750805b601f850160051c820191505b818110156200033f578281556001016200032a565b5050505b505050565b81516001600160401b03811115620003645762000364620001c5565b6200037c81620003758454620002b9565b84620002f5565b602080601f831160018114620003b457600084156200039b5750858301515b600019600386901b1c1916600185901b1785556200033f565b600085815260208120601f198616915b82811015620003e557888601518255948401946001909101908401620003c4565b5085821015620004045787850151600019600388901b60f8161c191681555b5050505050600190811b01905550565b602081526000825180602084015262000435816040850160208701620001db565b601f01601f19169190910160400192915050565b80516020808301519190811015620002ef5760001960209190910360031b1b16919050565b60805160a05160c05160e0516101005161012051610140516111c1620004c960003960006101820152600061015801526000610bb901526000610b9101526000610aec01526000610b1601526000610b4001526111c16000f3fe60806040526004361061004a5760003560e01c806319d8d38c1461004f5780637ecebe001461008457806384b0196e146100c8578063ccf96b4a146100f0578063df905caf14610105575b600080fd5b34801561005b57600080fd5b5061006f61006a366004610cd3565b610118565b60405190151581526020015b60405180910390f35b34801561009057600080fd5b506100ba61009f366004610d2a565b6001600160a01b031660009081526002602052604090205490565b60405190815260200161007b565b3480156100d457600080fd5b506100dd61014a565b60405161007b9796959493929190610d8d565b6101036100fe366004610e23565b6101d2565b005b610103610113366004610cd3565b6102e1565b60008060008061012785610391565b509250925092508280156101385750815b80156101415750805b95945050505050565b60006060808280808361017d7f000000000000000000000000000000000000000000000000000000000000000083610416565b6101a87f00000000000000000000000000000000000000000000000000000000000000006001610416565b60408051600080825260208201909252600f60f81b9b939a50919850469750309650945092509050565b6001600160a01b03811615600080805b8581101561029a578686828181106101fc576101fc610ebf565b905060200281019061020e9190610ed5565b61021c906040013584610f0b565b9250600061024d88888481811061023557610235610ebf565b90506020028101906102479190610ed5565b866104ba565b9050806102895787878381811061026657610266610ebf565b90506020028101906102789190610ed5565b610286906040013584610f0b565b92505b5061029381610f1e565b90506101e2565b503482146102c9576040516370647f7960e01b8152600481018390523460248201526044015b60405180910390fd5b80156102d9576102d9848261069d565b505050505050565b8060400135341461031157604080516370647f7960e01b81529082013560048201523460248201526044016102c0565b61031c8160016104ba565b6103585761032d6020820182610d2a565b604051636422d02b60e11b81526001600160a01b0390911660048201523360248201526044016102c0565b50565b600060208351101561037757610370836107bb565b9050610388565b816103828482610fb7565b5060ff90505b92915050565b90565b6000806000806000806103a3876107f9565b90925090506103c06103bb6040890160208a01610d2a565b61096d565b426103d160a08a0160808b01611077565b65ffffffffffff16101583801561040557506103f060208a018a610d2a565b6001600160a01b0316836001600160a01b0316145b919750955093509150509193509193565b606060ff831461042957610370836109ea565b81805461043590610f37565b80601f016020809104026020016040519081016040528092919081815260200182805461046190610f37565b80156104ae5780601f10610483576101008083540402835291602001916104ae565b820191906000526020600020905b81548152906001019060200180831161049157829003601f168201915b50505050509050610388565b60008060008060006104cb87610391565b935093509350935085156105915783610519576104ee6040880160208901610d2a565b60405163d2650cd160e01b81526001600160a01b0390911660048201523060248201526044016102c0565b826105525761052e60a0880160808901611077565b604051634a777ac560e11b815265ffffffffffff90911660048201526024016102c0565b8161059157806105656020890189610d2a565b604051636422d02b60e11b81526001600160a01b039283166004820152911660248201526044016102c0565b83801561059b5750815b80156105a45750825b15610693576001600160a01b03811660009081526002602052604081208054600181019091559050606088013560006105e360408b0160208c01610d2a565b905060408a013560006105f960a08d018d61109f565b61060660208f018f610d2a565b604051602001610618939291906110e6565b6040516020818303038152906040529050600080600083516020850186888af19a505a9050610647818e610a29565b604080518781528c151560208201526001600160a01b038916917f842fb24a83793558587a3dab2be7674da4a51d09c5542d6dd354e5d0ea70813c910160405180910390a25050505050505b5050505092915050565b804710156106ed5760405162461bcd60e51b815260206004820152601d60248201527f416464726573733a20696e73756666696369656e742062616c616e636500000060448201526064016102c0565b6000826001600160a01b03168260405160006040518083038185875af1925050503d806000811461073a576040519150601f19603f3d011682016040523d82523d6000602084013e61073f565b606091505b50509050806107b65760405162461bcd60e51b815260206004820152603a60248201527f416464726573733a20756e61626c6520746f2073656e642076616c75652c207260448201527f6563697069656e74206d6179206861766520726576657274656400000000000060648201526084016102c0565b505050565b600080829050601f815111156107e6578260405163305a27a960e01b81526004016102c0919061110c565b80516107f18261111f565b179392505050565b600080808061094861080e60c087018761109f565b8080601f01602080910402602001604051908101604052809392919081815260200183838082843760009201919091525061094292507f7f96328b83274ebc7c1cf4f7a3abda602b51a78b7fa1d86a2ce353d75e587cac9150610876905060208a018a610d2a565b61088660408b0160208c01610d2a565b60408b013560608c01356108a061009f60208f018f610d2a565b8d60800160208101906108b39190611077565b8e8060a001906108c3919061109f565b6040516108d1929190611143565b6040805191829003822060208301999099526001600160a01b0397881690820152959094166060860152608085019290925260a084015260c083015265ffffffffffff1660e08201526101008101919091526101200160405160208183030381529060405280519060200120610a45565b90610a72565b9092509050600081600481111561096157610961611153565b14959194509092505050565b604051306024820152600090819060440160408051601f19818403018152919052602080820180516001600160e01b031663572b6c0560e01b17815282519293506000928392839290918391895afa92503d915060005190508280156109d4575060208210155b80156109e05750600081115b9695505050505050565b606060006109f783610ab7565b604080516020808252818301909252919250600091906020820181803683375050509182525060208101929092525090565b610a38603f6060830135611169565b821015610a4157fe5b5050565b6000610388610a52610adf565b8360405161190160f01b8152600281019290925260228201526042902090565b6000808251604103610aa85760208301516040840151606085015160001a610a9c87828585610c0f565b94509450505050610ab0565b506000905060025b9250929050565b600060ff8216601f81111561038857604051632cd44ac360e21b815260040160405180910390fd5b6000306001600160a01b037f000000000000000000000000000000000000000000000000000000000000000016148015610b3857507f000000000000000000000000000000000000000000000000000000000000000046145b15610b6257507f000000000000000000000000000000000000000000000000000000000000000090565b610c0a604080517f8b73c3c69bb8fe3d512ecc4cf759cc79239f7b179b0ffacaa9a75d522b39400f60208201527f0000000000000000000000000000000000000000000000000000000000000000918101919091527f000000000000000000000000000000000000000000000000000000000000000060608201524660808201523060a082015260009060c00160405160208183030381529060405280519060200120905090565b905090565b6000807f7fffffffffffffffffffffffffffffff5d576e7357a4501ddfe92f46681b20a0831115610c465750600090506003610cca565b6040805160008082526020820180845289905260ff881692820192909252606081018690526080810185905260019060a0016020604051602081039080840390855afa158015610c9a573d6000803e3d6000fd5b5050604051601f1901519150506001600160a01b038116610cc357600060019250925050610cca565b9150600090505b94509492505050565b600060208284031215610ce557600080fd5b813567ffffffffffffffff811115610cfc57600080fd5b820160e08185031215610d0e57600080fd5b9392505050565b6001600160a01b038116811461035857600080fd5b600060208284031215610d3c57600080fd5b8135610d0e81610d15565b6000815180845260005b81811015610d6d57602081850181015186830182015201610d51565b506000602082860101526020601f19601f83011685010191505092915050565b60ff60f81b881681526000602060e081840152610dad60e084018a610d47565b8381036040850152610dbf818a610d47565b606085018990526001600160a01b038816608086015260a0850187905284810360c0860152855180825283870192509083019060005b81811015610e1157835183529284019291840191600101610df5565b50909c9b505050505050505050505050565b600080600060408486031215610e3857600080fd5b833567ffffffffffffffff80821115610e5057600080fd5b818601915086601f830112610e6457600080fd5b813581811115610e7357600080fd5b8760208260051b8501011115610e8857600080fd5b60209283019550935050840135610e9e81610d15565b809150509250925092565b634e487b7160e01b600052604160045260246000fd5b634e487b7160e01b600052603260045260246000fd5b6000823560de19833603018112610eeb57600080fd5b9190910192915050565b634e487b7160e01b600052601160045260246000fd5b8082018082111561038857610388610ef5565b600060018201610f3057610f30610ef5565b5060010190565b600181811c90821680610f4b57607f821691505b602082108103610f6b57634e487b7160e01b600052602260045260246000fd5b50919050565b601f8211156107b657600081815260208120601f850160051c81016020861015610f985750805b601f850160051c820191505b818110156102d957828155600101610fa4565b815167ffffffffffffffff811115610fd157610fd1610ea9565b610fe581610fdf8454610f37565b84610f71565b602080601f83116001811461101a57600084156110025750858301515b600019600386901b1c1916600185901b1785556102d9565b600085815260208120601f198616915b828110156110495788860151825594840194600190910190840161102a565b50858210156110675787850151600019600388901b60f8161c191681555b5050505050600190811b01905550565b60006020828403121561108957600080fd5b813565ffffffffffff81168114610d0e57600080fd5b6000808335601e198436030181126110b657600080fd5b83018035915067ffffffffffffffff8211156110d157600080fd5b602001915036819003821315610ab057600080fd5b8284823760609190911b6bffffffffffffffffffffffff19169101908152601401919050565b602081526000610d0e6020830184610d47565b80516020808301519190811015610f6b5760001960209190910360031b1b16919050565b8183823760009101908152919050565b634e487b7160e01b600052602160045260246000fd5b60008261118657634e487b7160e01b600052601260045260246000fd5b50049056fea2646970667358221220c83e6d83833084e1c192759d6779bb9e421116359429c53a5d127eab832dee7864736f6c63430008110033",
  "devdoc": {
    "errors": {
      "ERC2771ForwarderExpiredRequest(uint48)": [
        {
          "details": "The request `deadline` has expired."
        }
      ],
      "ERC2771ForwarderInvalidSigner(address,address)": [
        {
          "details": "The request `from` doesn't match with the recovered `signer`."
        }
      ],
      "ERC2771ForwarderMismatchedValue(uint256,uint256)": [
        {
          "details": "The `requestedValue` doesn't match with the available `msgValue`."
        }
      ],
      "ERC2771UntrustfulTarget(address,address)": [
        {
          "details": "The request target doesn't trust the `forwarder`."
        }
      ],
      "InvalidAccountNonce(address,uint256)": [
        {
          "details": "The nonce used for an `account` is not the expected current nonce."
        }
      ]
    },
    "events": {
      "ExecutedForwardRequest(address,uint256,bool)": {
        "details": "Emitted when a `ForwardRequest` is executed. NOTE: An unsuccessful forward request could be due to an invalid signature, an expired deadline, or simply a revert in the requested call. The contract guarantees that the relayer is not able to force the requested call to run out of gas."
      }
    },
    "kind": "dev",
    "methods": {
      "constructor": {
        "details": "See {EIP712-constructor}."
      },
      "eip712Domain()": {
        "details": "See {EIP-5267}. _Available since v4.9._"
      },
      "execute((address,address,uint256,uint256,uint48,bytes,bytes))": {
        "details": "Executes a `request` on behalf of `signature`'s signer using the ERC-2771 protocol. The gas provided to the requested call may not be exactly the amount requested, but the call will not run out of gas. Will revert if the request is invalid or the call reverts, in this case the nonce is not consumed. Requirements: - The request value should be equal to the provided `msg.value`. - The request should be valid according to {verify}."
      },
      "executeBatch((address,address,uint256,uint256,uint48,bytes,bytes)[],address)": {
        "details": "Batch version of {execute} with optional refunding and atomic execution. In case a batch contains at least one invalid request (see {verify}), the request will be skipped and the `refundReceiver` parameter will receive back the unused requested value at the end of the execution. This is done to prevent reverting the entire batch when a request is invalid or has already been submitted. If the `refundReceiver` is the `address(0)`, this function will revert when at least one of the requests was not valid instead of skipping it. This could be useful if a batch is required to get executed atomically (at least at the top-level). For example, refunding (and thus atomicity) can be opt-out if the relayer is using a service that avoids including reverted transactions. Requirements: - The sum of the requests' values should be equal to the provided `msg.value`. - All of the requests should be valid (see {verify}) when `refundReceiver` is the zero address. NOTE: Setting a zero `refundReceiver` guarantees an all-or-nothing requests execution only for the first-level forwarded calls. In case a forwarded request calls to a contract with another subcall, the second-level call may revert without the top-level call reverting."
      },
      "nonces(address)": {
        "details": "Returns the next unused nonce for an address."
      },
      "verify((address,address,uint256,uint256,uint48,bytes,bytes))": {
        "details": "Returns `true` if a request is valid for a provided `signature` at the current block timestamp. A transaction is considered valid when the target trusts this forwarder, the request hasn't expired (deadline is not met), and the signer matches the `from` parameter of the signed request. NOTE: A request may return false here but it won't cause {executeBatch} to revert if a refund receiver is provided."
      }
    },
    "version": 1
  },
  "userdoc": {
    "kind": "user",
    "methods": {},
    "version": 1
  },
  "storageLayout": {
    "storage": [
      {
        "astId": 3551,
        "contract": "contracts/CelestialForwarder.sol:CelestialForwarder",
        "label": "_nameFallback",
        "offset": 0,
        "slot": "0",
        "type": "t_string_storage"
      },
      {
        "astId": 3553,
        "contract": "contracts/CelestialForwarder.sol:CelestialForwarder",
        "label": "_versionFallback",
        "offset": 0,
        "slot": "1",
        "type": "t_string_storage"
      },
      {
        "astId": 5629,
        "contract": "contracts/CelestialForwarder.sol:CelestialForwarder",
        "label": "_nonces",
        "offset": 0,
        "slot": "2",
        "type": "t_mapping(t_address,t_uint256)"
      }
    ],
    "types": {
      "t_address": {
        "encoding": "inplace",
        "label": "address",
        "numberOfBytes": "20"
      },
      "t_mapping(t_address,t_uint256)": {
        "encoding": "mapping",
        "key": "t_address",
        "label": "mapping(address => uint256)",
        "numberOfBytes": "32",
        "value": "t_uint256"
      },
      "t_string_storage": {
        "encoding": "bytes",
        "label": "string",
        "numberOfBytes": "32"
      },
      "t_uint256": {
        "encoding": "inplace",
        "label": "uint256",
        "numberOfBytes": "32"
      }
    }
  }
}