{
  "address": "0x23c066a80d146d68820F157b74548C9DB3c07C62",
  "abi": [
    {
      "inputs": [],
      "stateMutability": "nonpayable",
      "type": "constructor"
    },
    {
      "anonymous": false,
      "inputs": [
        {
          "indexed": true,
          "internalType": "address",
          "name": "owner",
          "type": "address"
        },
        {
          "indexed": true,
          "internalType": "address",
          "name": "approved",
          "type": "address"
        },
        {
          "indexed": true,
          "internalType": "uint256",
          "name": "tokenId",
          "type": "uint256"
        }
      ],
      "name": "Approval",
      "type": "event"
    },
    {
      "anonymous": false,
      "inputs": [
        {
          "indexed": true,
          "internalType": "address",
          "name": "owner",
          "type": "address"
        },
        {
          "indexed": true,
          "internalType": "address",
          "name": "operator",
          "type": "address"
        },
        {
          "indexed": false,
          "internalType": "bool",
          "name": "approved",
          "type": "bool"
        }
      ],
      "name": "ApprovalForAll",
      "type": "event"
    },
    {
      "anonymous": false,
      "inputs": [
        {
          "indexed": false,
          "internalType": "uint256",
          "name": "_fromTokenId",
          "type": "uint256"
        },
        {
          "indexed": false,
          "internalType": "uint256",
          "name": "_toTokenId",
          "type": "uint256"
        }
      ],
      "name": "BatchMetadataUpdate",
      "type": "event"
    },
    {
      "anonymous": false,
      "inputs": [
        {
          "indexed": false,
          "internalType": "uint256",
          "name": "_tokenId",
          "type": "uint256"
        }
      ],
      "name": "MetadataUpdate",
      "type": "event"
    },
    {
      "anonymous": false,
      "inputs": [
        {
          "indexed": true,
          "internalType": "address",
          "name": "previousOwner",
          "type": "address"
        },
        {
          "indexed": true,
          "internalType": "address",
          "name": "newOwner",
          "type": "address"
        }
      ],
      "name": "OwnershipTransferred",
      "type": "event"
    },
    {
      "anonymous": false,
      "inputs": [
        {
          "indexed": true,
          "internalType": "address",
          "name": "from",
          "type": "address"
        },
        {
          "indexed": true,
          "internalType": "address",
          "name": "to",
          "type": "address"
        },
        {
          "indexed": true,
          "internalType": "uint256",
          "name": "tokenId",
          "type": "uint256"
        }
      ],
      "name": "Transfer",
      "type": "event"
    },
    {
      "inputs": [
        {
          "internalType": "address",
          "name": "",
          "type": "address"
        },
        {
          "internalType": "uint256",
          "name": "",
          "type": "uint256"
        }
      ],
      "name": "accountNFTs",
      "outputs": [
        {
          "internalType": "uint256",
          "name": "",
          "type": "uint256"
        }
      ],
      "stateMutability": "view",
      "type": "function"
    },
    {
      "inputs": [
        {
          "internalType": "address",
          "name": "",
          "type": "address"
        }
      ],
      "name": "accounts",
      "outputs": [
        {
          "internalType": "uint256",
          "name": "balance",
          "type": "uint256"
        },
        {
          "internalType": "uint256",
          "name": "lastSummaryTime",
          "type": "uint256"
        },
        {
          "internalType": "uint256",
          "name": "redemptionTime",
          "type": "uint256"
        }
      ],
      "stateMutability": "view",
      "type": "function"
    },
    {
      "inputs": [
        {
          "internalType": "address",
          "name": "to",
          "type": "address"
        },
        {
          "internalType": "uint256",
          "name": "tokenId",
          "type": "uint256"
        }
      ],
      "name": "approve",
      "outputs": [],
      "stateMutability": "nonpayable",
      "type": "function"
    },
    {
      "inputs": [
        {
          "internalType": "address",
          "name": "owner",
          "type": "address"
        }
      ],
      "name": "balanceOf",
      "outputs": [
        {
          "internalType": "uint256",
          "name": "",
          "type": "uint256"
        }
      ],
      "stateMutability": "view",
      "type": "function"
    },
    {
      "inputs": [],
      "name": "deposit",
      "outputs": [],
      "stateMutability": "payable",
      "type": "function"
    },
    {
      "inputs": [
        {
          "internalType": "address",
          "name": "account",
          "type": "address"
        }
      ],
      "name": "getAllNFTs",
      "outputs": [
        {
          "internalType": "uint256[]",
          "name": "",
          "type": "uint256[]"
        }
      ],
      "stateMutability": "view",
      "type": "function"
    },
    {
      "inputs": [
        {
          "internalType": "uint256",
          "name": "tokenId",
          "type": "uint256"
        }
      ],
      "name": "getApproved",
      "outputs": [
        {
          "internalType": "address",
          "name": "",
          "type": "address"
        }
      ],
      "stateMutability": "view",
      "type": "function"
    },
    {
      "inputs": [
        {
          "internalType": "address",
          "name": "owner",
          "type": "address"
        },
        {
          "internalType": "address",
          "name": "operator",
          "type": "address"
        }
      ],
      "name": "isApprovedForAll",
      "outputs": [
        {
          "internalType": "bool",
          "name": "",
          "type": "bool"
        }
      ],
      "stateMutability": "view",
      "type": "function"
    },
    {
      "inputs": [
        {
          "internalType": "address",
          "name": "account",
          "type": "address"
        }
      ],
      "name": "mintWeeklyNFT",
      "outputs": [],
      "stateMutability": "nonpayable",
      "type": "function"
    },
    {
      "inputs": [],
      "name": "name",
      "outputs": [
        {
          "internalType": "string",
          "name": "",
          "type": "string"
        }
      ],
      "stateMutability": "view",
      "type": "function"
    },
    {
      "inputs": [],
      "name": "nextNFTId",
      "outputs": [
        {
          "internalType": "uint256",
          "name": "",
          "type": "uint256"
        }
      ],
      "stateMutability": "view",
      "type": "function"
    },
    {
      "inputs": [],
      "name": "owner",
      "outputs": [
        {
          "internalType": "address",
          "name": "",
          "type": "address"
        }
      ],
      "stateMutability": "view",
      "type": "function"
    },
    {
      "inputs": [
        {
          "internalType": "uint256",
          "name": "tokenId",
          "type": "uint256"
        }
      ],
      "name": "ownerOf",
      "outputs": [
        {
          "internalType": "address",
          "name": "",
          "type": "address"
        }
      ],
      "stateMutability": "view",
      "type": "function"
    },
    {
      "inputs": [],
      "name": "redeem",
      "outputs": [],
      "stateMutability": "nonpayable",
      "type": "function"
    },
    {
      "inputs": [],
      "name": "renounceOwnership",
      "outputs": [],
      "stateMutability": "nonpayable",
      "type": "function"
    },
    {
      "inputs": [
        {
          "internalType": "address",
          "name": "from",
          "type": "address"
        },
        {
          "internalType": "address",
          "name": "to",
          "type": "address"
        },
        {
          "internalType": "uint256",
          "name": "tokenId",
          "type": "uint256"
        }
      ],
      "name": "safeTransferFrom",
      "outputs": [],
      "stateMutability": "nonpayable",
      "type": "function"
    },
    {
      "inputs": [
        {
          "internalType": "address",
          "name": "from",
          "type": "address"
        },
        {
          "internalType": "address",
          "name": "to",
          "type": "address"
        },
        {
          "internalType": "uint256",
          "name": "tokenId",
          "type": "uint256"
        },
        {
          "internalType": "bytes",
          "name": "data",
          "type": "bytes"
        }
      ],
      "name": "safeTransferFrom",
      "outputs": [],
      "stateMutability": "nonpayable",
      "type": "function"
    },
    {
      "inputs": [
        {
          "internalType": "address",
          "name": "operator",
          "type": "address"
        },
        {
          "internalType": "bool",
          "name": "approved",
          "type": "bool"
        }
      ],
      "name": "setApprovalForAll",
      "outputs": [],
      "stateMutability": "nonpayable",
      "type": "function"
    },
    {
      "inputs": [
        {
          "internalType": "uint256",
          "name": "time",
          "type": "uint256"
        }
      ],
      "name": "startAccount",
      "outputs": [],
      "stateMutability": "nonpayable",
      "type": "function"
    },
    {
      "inputs": [
        {
          "internalType": "bytes4",
          "name": "interfaceId",
          "type": "bytes4"
        }
      ],
      "name": "supportsInterface",
      "outputs": [
        {
          "internalType": "bool",
          "name": "",
          "type": "bool"
        }
      ],
      "stateMutability": "view",
      "type": "function"
    },
    {
      "inputs": [],
      "name": "symbol",
      "outputs": [
        {
          "internalType": "string",
          "name": "",
          "type": "string"
        }
      ],
      "stateMutability": "view",
      "type": "function"
    },
    {
      "inputs": [
        {
          "internalType": "uint256",
          "name": "tokenId",
          "type": "uint256"
        }
      ],
      "name": "tokenURI",
      "outputs": [
        {
          "internalType": "string",
          "name": "",
          "type": "string"
        }
      ],
      "stateMutability": "view",
      "type": "function"
    },
    {
      "inputs": [
        {
          "internalType": "address",
          "name": "from",
          "type": "address"
        },
        {
          "internalType": "address",
          "name": "to",
          "type": "address"
        },
        {
          "internalType": "uint256",
          "name": "tokenId",
          "type": "uint256"
        }
      ],
      "name": "transferFrom",
      "outputs": [],
      "stateMutability": "nonpayable",
      "type": "function"
    },
    {
      "inputs": [
        {
          "internalType": "address",
          "name": "newOwner",
          "type": "address"
        }
      ],
      "name": "transferOwnership",
      "outputs": [],
      "stateMutability": "nonpayable",
      "type": "function"
    }
  ],
  "transactionHash": "0x6897dd2bdefb9426a8c9d26bbd42e1013beeae3c146c4501cd62a6276e641240",
  "args": [],
  "numDeployments": 4,
  "solcInputHash": "ec33da2e380f3214fcee299ee8d5d897",
  "bytecode": "0x60806040523480156200001157600080fd5b506040518060400160405280600a81526020016914dd5b5b585c9e53919560b21b8152506040518060400160405280600481526020016314d3919560e21b815250816000908162000063919062000195565b50600162000072828262000195565b5050506200008f620000896200009a60201b60201c565b6200009e565b600160085562000261565b3390565b600780546001600160a01b038381166001600160a01b0319831681179093556040519116919082907f8be0079c531659141344cd1fd0a4f28419497f9722a3daafe3b4186f6b6457e090600090a35050565b634e487b7160e01b600052604160045260246000fd5b600181811c908216806200011b57607f821691505b6020821081036200013c57634e487b7160e01b600052602260045260246000fd5b50919050565b601f8211156200019057600081815260208120601f850160051c810160208610156200016b5750805b601f850160051c820191505b818110156200018c5782815560010162000177565b5050505b505050565b81516001600160401b03811115620001b157620001b1620000f0565b620001c981620001c2845462000106565b8462000142565b602080601f831160018114620002015760008415620001e85750858301515b600019600386901b1c1916600185901b1785556200018c565b600085815260208120601f198616915b82811015620002325788860151825594840194600190910190840162000211565b5085821015620002515787850151600019600388901b60f8161c191681555b5050505050600190811b01905550565b611d9d80620002716000396000f3fe60806040526004361061014b5760003560e01c8063715018a6116100b6578063be040fb01161006f578063be040fb0146103fb578063c87b56dd14610410578063c909adc014610430578063d0e30db014610446578063e985e9c51461044e578063f2fde38b1461046e57600080fd5b8063715018a6146103535780638da5cb5b1461036857806395d89b4114610386578063a22cb4651461039b578063b858b1ab146103bb578063b88d4fde146103db57600080fd5b806323b872dd1161010857806323b872dd1461025c57806331d90b5e1461027c57806342842e0e1461029c5780635e5c06e2146102bc5780636352211e1461031357806370a082311461033357600080fd5b806301ffc9a71461015057806306fdde0314610185578063081812fc146101a7578063095ea7b3146101df57806310a350a7146102015780631f5bcf5f1461022e575b600080fd5b34801561015c57600080fd5b5061017061016b36600461176c565b61048e565b60405190151581526020015b60405180910390f35b34801561019157600080fd5b5061019a6104b9565b60405161017c91906117d9565b3480156101b357600080fd5b506101c76101c23660046117ec565b61054b565b6040516001600160a01b03909116815260200161017c565b3480156101eb57600080fd5b506101ff6101fa366004611821565b610572565b005b34801561020d57600080fd5b5061022161021c36600461184b565b61068c565b60405161017c9190611866565b34801561023a57600080fd5b5061024e610249366004611821565b6106f8565b60405190815260200161017c565b34801561026857600080fd5b506101ff6102773660046118aa565b610729565b34801561028857600080fd5b506101ff61029736600461184b565b61075a565b3480156102a857600080fd5b506101ff6102b73660046118aa565b61086b565b3480156102c857600080fd5b506102f86102d736600461184b565b60096020526000908152604090208054600182015460029092015490919083565b6040805193845260208401929092529082015260600161017c565b34801561031f57600080fd5b506101c761032e3660046117ec565b610886565b34801561033f57600080fd5b5061024e61034e36600461184b565b6108e6565b34801561035f57600080fd5b506101ff61096c565b34801561037457600080fd5b506007546001600160a01b03166101c7565b34801561039257600080fd5b5061019a610980565b3480156103a757600080fd5b506101ff6103b63660046118e6565b61098f565b3480156103c757600080fd5b506101ff6103d63660046117ec565b61099a565b3480156103e757600080fd5b506101ff6103f6366004611938565b610a72565b34801561040757600080fd5b506101ff610aaa565b34801561041c57600080fd5b5061019a61042b3660046117ec565b610b87565b34801561043c57600080fd5b5061024e60085481565b6101ff610c97565b34801561045a57600080fd5b50610170610469366004611a14565b610ced565b34801561047a57600080fd5b506101ff61048936600461184b565b610d1b565b60006001600160e01b03198216632483248360e11b14806104b357506104b382610d94565b92915050565b6060600080546104c890611a47565b80601f01602080910402602001604051908101604052809291908181526020018280546104f490611a47565b80156105415780601f1061051657610100808354040283529160200191610541565b820191906000526020600020905b81548152906001019060200180831161052457829003601f168201915b5050505050905090565b600061055682610de4565b506000908152600460205260409020546001600160a01b031690565b600061057d82610886565b9050806001600160a01b0316836001600160a01b0316036105ef5760405162461bcd60e51b815260206004820152602160248201527f4552433732313a20617070726f76616c20746f2063757272656e74206f776e656044820152603960f91b60648201526084015b60405180910390fd5b336001600160a01b038216148061060b575061060b8133610ced565b61067d5760405162461bcd60e51b815260206004820152603d60248201527f4552433732313a20617070726f76652063616c6c6572206973206e6f7420746f60448201527f6b656e206f776e6572206f7220617070726f76656420666f7220616c6c00000060648201526084016105e6565b6106878383610e43565b505050565b6001600160a01b0381166000908152600a60209081526040918290208054835181840281018401909452808452606093928301828280156106ec57602002820191906000526020600020905b8154815260200190600101908083116106d8575b50505050509050919050565b600a602052816000526040600020818154811061071457600080fd5b90600052602060002001600091509150505481565b6107333382610eb1565b61074f5760405162461bcd60e51b81526004016105e690611a81565b610687838383610f0f565b6001600160a01b03811660009081526009602052604090206002015481906107945760405162461bcd60e51b81526004016105e690611ace565b6001600160a01b0382166000908152600960205260409020600101546107bd9062015180611b0d565b421115610867576001600160a01b038216600090815260096020526040812054906107e782611073565b90506107f584600854611106565b61080160085482611291565b6001600160a01b0384166000908152600a6020908152604082206008805482546001810184559285529284209091019190915580549161084083611b20565b9091555050506001600160a01b038316600090815260096020526040902042600190910155505b5050565b61068783838360405180602001604052806000815250610a72565b6000818152600260205260408120546001600160a01b0316806104b35760405162461bcd60e51b8152602060048201526018602482015277115490cdcc8c4e881a5b9d985b1a59081d1bdad95b88125160421b60448201526064016105e6565b60006001600160a01b0382166109505760405162461bcd60e51b815260206004820152602960248201527f4552433732313a2061646472657373207a65726f206973206e6f7420612076616044820152683634b21037bbb732b960b91b60648201526084016105e6565b506001600160a01b031660009081526003602052604090205490565b61097461135c565b61097e60006113b6565b565b6060600180546104c890611a47565b610867338383611408565b33600090815260096020526040902054156109f75760405162461bcd60e51b815260206004820152601760248201527f4163636f756e7420616c7265616479207374617274656400000000000000000060448201526064016105e6565b428111610a355760405162461bcd60e51b815260206004820152600c60248201526b496e76616c69642074696d6560a01b60448201526064016105e6565b6040805160608101825260008082526020808301828152838501958652338352600990915292902090518155905160018201559051600290910155565b610a7c3383610eb1565b610a985760405162461bcd60e51b81526004016105e690611a81565b610aa4848484846114d6565b50505050565b33600081815260096020526040902060020154610ad95760405162461bcd60e51b81526004016105e690611ace565b336000908152600960205260409020600201544211610b2e5760405162461bcd60e51b815260206004820152601160248201527010d85b9b9bdd081c995919595b481e595d607a1b60448201526064016105e6565b33600081815260096020526040808220805490839055905190929183156108fc02918491818181858888f19350505050158015610b6f573d6000803e3d6000fd5b50503360009081526009602052604081206002015550565b6060610b9282610de4565b60008281526006602052604081208054610bab90611a47565b80601f0160208091040260200160405190810160405280929190818152602001828054610bd790611a47565b8015610c245780601f10610bf957610100808354040283529160200191610c24565b820191906000526020600020905b815481529060010190602001808311610c0757829003601f168201915b505050505090506000610c4260408051602081019091526000815290565b90508051600003610c54575092915050565b815115610c86578082604051602001610c6e929190611b39565b60405160208183030381529060405292505050919050565b610c8f84611509565b949350505050565b33600081815260096020526040902060020154610cc65760405162461bcd60e51b81526004016105e690611ace565b3360009081526009602052604081208054349290610ce5908490611b0d565b909155505050565b6001600160a01b03918216600090815260056020908152604080832093909416825291909152205460ff1690565b610d2361135c565b6001600160a01b038116610d885760405162461bcd60e51b815260206004820152602660248201527f4f776e61626c653a206e6577206f776e657220697320746865207a65726f206160448201526564647265737360d01b60648201526084016105e6565b610d91816113b6565b50565b60006001600160e01b031982166380ac58cd60e01b1480610dc557506001600160e01b03198216635b5e139f60e01b145b806104b357506301ffc9a760e01b6001600160e01b03198316146104b3565b6000818152600260205260409020546001600160a01b0316610d915760405162461bcd60e51b8152602060048201526018602482015277115490cdcc8c4e881a5b9d985b1a59081d1bdad95b88125160421b60448201526064016105e6565b600081815260046020526040902080546001600160a01b0319166001600160a01b0384169081179091558190610e7882610886565b6001600160a01b03167f8c5be1e5ebec7d5bd14f71427d1e84f3dd0314c0f7b2291e5b200ac8c7c3b92560405160405180910390a45050565b600080610ebd83610886565b9050806001600160a01b0316846001600160a01b03161480610ee45750610ee48185610ced565b80610c8f5750836001600160a01b0316610efd8461054b565b6001600160a01b031614949350505050565b826001600160a01b0316610f2282610886565b6001600160a01b031614610f485760405162461bcd60e51b81526004016105e690611b68565b6001600160a01b038216610faa5760405162461bcd60e51b8152602060048201526024808201527f4552433732313a207472616e7366657220746f20746865207a65726f206164646044820152637265737360e01b60648201526084016105e6565b826001600160a01b0316610fbd82610886565b6001600160a01b031614610fe35760405162461bcd60e51b81526004016105e690611b68565b600081815260046020908152604080832080546001600160a01b03199081169091556001600160a01b0387811680865260038552838620805460001901905590871680865283862080546001019055868652600290945282852080549092168417909155905184937fddf252ad1be2c89b69c2b068fc378daa952ba7f163c4a11628f55a4df523b3ef91a4505050565b606060006110808361157d565b600101905060008167ffffffffffffffff8111156110a0576110a0611922565b6040519080825280601f01601f1916602001820160405280156110ca576020820181803683370190505b5090508181016020015b600019016f181899199a1a9b1b9c1cb0b131b232b360811b600a86061a8153600a85049450846110d457509392505050565b6001600160a01b03821661115c5760405162461bcd60e51b815260206004820181905260248201527f4552433732313a206d696e7420746f20746865207a65726f206164647265737360448201526064016105e6565b6000818152600260205260409020546001600160a01b0316156111c15760405162461bcd60e51b815260206004820152601c60248201527f4552433732313a20746f6b656e20616c7265616479206d696e7465640000000060448201526064016105e6565b6000818152600260205260409020546001600160a01b0316156112265760405162461bcd60e51b815260206004820152601c60248201527f4552433732313a20746f6b656e20616c7265616479206d696e7465640000000060448201526064016105e6565b6001600160a01b038216600081815260036020908152604080832080546001019055848352600290915280822080546001600160a01b0319168417905551839291907fddf252ad1be2c89b69c2b068fc378daa952ba7f163c4a11628f55a4df523b3ef908290a45050565b6000828152600260205260409020546001600160a01b031661130c5760405162461bcd60e51b815260206004820152602e60248201527f45524337323155524953746f726167653a2055524920736574206f66206e6f6e60448201526d32bc34b9ba32b73a103a37b5b2b760911b60648201526084016105e6565b60008281526006602052604090206113248282611bfb565b506040518281527ff8e1a15aba9398e019f0b49df1a4fde98ee17ae345cb5f6b5e2c27f5033e8ce79060200160405180910390a15050565b6007546001600160a01b0316331461097e5760405162461bcd60e51b815260206004820181905260248201527f4f776e61626c653a2063616c6c6572206973206e6f7420746865206f776e657260448201526064016105e6565b600780546001600160a01b038381166001600160a01b0319831681179093556040519116919082907f8be0079c531659141344cd1fd0a4f28419497f9722a3daafe3b4186f6b6457e090600090a35050565b816001600160a01b0316836001600160a01b0316036114695760405162461bcd60e51b815260206004820152601960248201527f4552433732313a20617070726f766520746f2063616c6c65720000000000000060448201526064016105e6565b6001600160a01b03838116600081815260056020908152604080832094871680845294825291829020805460ff191686151590811790915591519182527f17307eab39ab6107e8899845ad3d59bd9653f200f220920489ca2b5937696c31910160405180910390a3505050565b6114e1848484610f0f565b6114ed84848484611655565b610aa45760405162461bcd60e51b81526004016105e690611cbb565b606061151482610de4565b600061152b60408051602081019091526000815290565b9050600081511161154b5760405180602001604052806000815250611576565b8061155584611073565b604051602001611566929190611b39565b6040516020818303038152906040525b9392505050565b60008072184f03e93ff9f4daa797ed6e38ed64bf6a1f0160401b83106115bc5772184f03e93ff9f4daa797ed6e38ed64bf6a1f0160401b830492506040015b6d04ee2d6d415b85acef810000000083106115e8576d04ee2d6d415b85acef8100000000830492506020015b662386f26fc10000831061160657662386f26fc10000830492506010015b6305f5e100831061161e576305f5e100830492506008015b612710831061163257612710830492506004015b60648310611644576064830492506002015b600a83106104b35760010192915050565b60006001600160a01b0384163b1561174b57604051630a85bd0160e11b81526001600160a01b0385169063150b7a0290611699903390899088908890600401611d0d565b6020604051808303816000875af19250505080156116d4575060408051601f3d908101601f191682019092526116d191810190611d4a565b60015b611731573d808015611702576040519150601f19603f3d011682016040523d82523d6000602084013e611707565b606091505b5080516000036117295760405162461bcd60e51b81526004016105e690611cbb565b805181602001fd5b6001600160e01b031916630a85bd0160e11b149050610c8f565b506001949350505050565b6001600160e01b031981168114610d9157600080fd5b60006020828403121561177e57600080fd5b813561157681611756565b60005b838110156117a457818101518382015260200161178c565b50506000910152565b600081518084526117c5816020860160208601611789565b601f01601f19169290920160200192915050565b60208152600061157660208301846117ad565b6000602082840312156117fe57600080fd5b5035919050565b80356001600160a01b038116811461181c57600080fd5b919050565b6000806040838503121561183457600080fd5b61183d83611805565b946020939093013593505050565b60006020828403121561185d57600080fd5b61157682611805565b6020808252825182820181905260009190848201906040850190845b8181101561189e57835183529284019291840191600101611882565b50909695505050505050565b6000806000606084860312156118bf57600080fd5b6118c884611805565b92506118d660208501611805565b9150604084013590509250925092565b600080604083850312156118f957600080fd5b61190283611805565b91506020830135801515811461191757600080fd5b809150509250929050565b634e487b7160e01b600052604160045260246000fd5b6000806000806080858703121561194e57600080fd5b61195785611805565b935061196560208601611805565b925060408501359150606085013567ffffffffffffffff8082111561198957600080fd5b818701915087601f83011261199d57600080fd5b8135818111156119af576119af611922565b604051601f8201601f19908116603f011681019083821181831017156119d7576119d7611922565b816040528281528a60208487010111156119f057600080fd5b82602086016020830137600060208483010152809550505050505092959194509250565b60008060408385031215611a2757600080fd5b611a3083611805565b9150611a3e60208401611805565b90509250929050565b600181811c90821680611a5b57607f821691505b602082108103611a7b57634e487b7160e01b600052602260045260246000fd5b50919050565b6020808252602d908201527f4552433732313a2063616c6c6572206973206e6f7420746f6b656e206f776e6560408201526c1c881bdc88185c1c1c9bdd9959609a1b606082015260800190565b6020808252600f908201526e125b9d985b1a59081858d8dbdd5b9d608a1b604082015260600190565b634e487b7160e01b600052601160045260246000fd5b808201808211156104b3576104b3611af7565b600060018201611b3257611b32611af7565b5060010190565b60008351611b4b818460208801611789565b835190830190611b5f818360208801611789565b01949350505050565b60208082526025908201527f4552433732313a207472616e736665722066726f6d20696e636f72726563742060408201526437bbb732b960d91b606082015260800190565b601f82111561068757600081815260208120601f850160051c81016020861015611bd45750805b601f850160051c820191505b81811015611bf357828155600101611be0565b505050505050565b815167ffffffffffffffff811115611c1557611c15611922565b611c2981611c238454611a47565b84611bad565b602080601f831160018114611c5e5760008415611c465750858301515b600019600386901b1c1916600185901b178555611bf3565b600085815260208120601f198616915b82811015611c8d57888601518255948401946001909101908401611c6e565b5085821015611cab5787850151600019600388901b60f8161c191681555b5050505050600190811b01905550565b60208082526032908201527f4552433732313a207472616e7366657220746f206e6f6e20455243373231526560408201527131b2b4bb32b91034b6b83632b6b2b73a32b960711b606082015260800190565b6001600160a01b0385811682528416602082015260408101839052608060608201819052600090611d40908301846117ad565b9695505050505050565b600060208284031215611d5c57600080fd5b81516115768161175656fea2646970667358221220fbe21e181120ea7d37d8099f4a670d8b0ad54a01141a0d45de37545bb988976764736f6c63430008110033",
  "devdoc": {
    "kind": "dev",
    "methods": {
      "approve(address,uint256)": {
        "details": "See {IERC721-approve}."
      },
      "balanceOf(address)": {
        "details": "See {IERC721-balanceOf}."
      },
      "getApproved(uint256)": {
        "details": "See {IERC721-getApproved}."
      },
      "isApprovedForAll(address,address)": {
        "details": "See {IERC721-isApprovedForAll}."
      },
      "name()": {
        "details": "See {IERC721Metadata-name}."
      },
      "owner()": {
        "details": "Returns the address of the current owner."
      },
      "ownerOf(uint256)": {
        "details": "See {IERC721-ownerOf}."
      },
      "renounceOwnership()": {
        "details": "Leaves the contract without owner. It will not be possible to call `onlyOwner` functions. Can only be called by the current owner. NOTE: Renouncing ownership will leave the contract without an owner, thereby disabling any functionality that is only available to the owner."
      },
      "safeTransferFrom(address,address,uint256)": {
        "details": "See {IERC721-safeTransferFrom}."
      },
      "safeTransferFrom(address,address,uint256,bytes)": {
        "details": "See {IERC721-safeTransferFrom}."
      },
      "setApprovalForAll(address,bool)": {
        "details": "See {IERC721-setApprovalForAll}."
      },
      "supportsInterface(bytes4)": {
        "details": "See {IERC165-supportsInterface}"
      },
      "symbol()": {
        "details": "See {IERC721Metadata-symbol}."
      },
      "tokenURI(uint256)": {
        "details": "See {IERC721Metadata-tokenURI}."
      },
      "transferFrom(address,address,uint256)": {
        "details": "See {IERC721-transferFrom}."
      },
      "transferOwnership(address)": {
        "details": "Transfers ownership of the contract to a new account (`newOwner`). Can only be called by the current owner."
      }
    },
    "version": 1
  },
  "userdoc": {
    "kind": "user",
    "methods": {},
    "version": 1
  },
  "storageLayout": {
    "storage": [
      {
        "astId": 257,
        "contract": "contracts/CelestialSavingManager.sol:CelestialSavingManager",
        "label": "_name",
        "offset": 0,
        "slot": "0",
        "type": "t_string_storage"
      },
      {
        "astId": 259,
        "contract": "contracts/CelestialSavingManager.sol:CelestialSavingManager",
        "label": "_symbol",
        "offset": 0,
        "slot": "1",
        "type": "t_string_storage"
      },
      {
        "astId": 263,
        "contract": "contracts/CelestialSavingManager.sol:CelestialSavingManager",
        "label": "_owners",
        "offset": 0,
        "slot": "2",
        "type": "t_mapping(t_uint256,t_address)"
      },
      {
        "astId": 267,
        "contract": "contracts/CelestialSavingManager.sol:CelestialSavingManager",
        "label": "_balances",
        "offset": 0,
        "slot": "3",
        "type": "t_mapping(t_address,t_uint256)"
      },
      {
        "astId": 271,
        "contract": "contracts/CelestialSavingManager.sol:CelestialSavingManager",
        "label": "_tokenApprovals",
        "offset": 0,
        "slot": "4",
        "type": "t_mapping(t_uint256,t_address)"
      },
      {
        "astId": 277,
        "contract": "contracts/CelestialSavingManager.sol:CelestialSavingManager",
        "label": "_operatorApprovals",
        "offset": 0,
        "slot": "5",
        "type": "t_mapping(t_address,t_mapping(t_address,t_bool))"
      },
      {
        "astId": 1308,
        "contract": "contracts/CelestialSavingManager.sol:CelestialSavingManager",
        "label": "_tokenURIs",
        "offset": 0,
        "slot": "6",
        "type": "t_mapping(t_uint256,t_string_storage)"
      },
      {
        "astId": 7,
        "contract": "contracts/CelestialSavingManager.sol:CelestialSavingManager",
        "label": "_owner",
        "offset": 0,
        "slot": "7",
        "type": "t_address"
      },
      {
        "astId": 3074,
        "contract": "contracts/CelestialSavingManager.sol:CelestialSavingManager",
        "label": "nextNFTId",
        "offset": 0,
        "slot": "8",
        "type": "t_uint256"
      },
      {
        "astId": 3086,
        "contract": "contracts/CelestialSavingManager.sol:CelestialSavingManager",
        "label": "accounts",
        "offset": 0,
        "slot": "9",
        "type": "t_mapping(t_address,t_struct(Account)3081_storage)"
      },
      {
        "astId": 3091,
        "contract": "contracts/CelestialSavingManager.sol:CelestialSavingManager",
        "label": "accountNFTs",
        "offset": 0,
        "slot": "10",
        "type": "t_mapping(t_address,t_array(t_uint256)dyn_storage)"
      }
    ],
    "types": {
      "t_address": {
        "encoding": "inplace",
        "label": "address",
        "numberOfBytes": "20"
      },
      "t_array(t_uint256)dyn_storage": {
        "base": "t_uint256",
        "encoding": "dynamic_array",
        "label": "uint256[]",
        "numberOfBytes": "32"
      },
      "t_bool": {
        "encoding": "inplace",
        "label": "bool",
        "numberOfBytes": "1"
      },
      "t_mapping(t_address,t_array(t_uint256)dyn_storage)": {
        "encoding": "mapping",
        "key": "t_address",
        "label": "mapping(address => uint256[])",
        "numberOfBytes": "32",
        "value": "t_array(t_uint256)dyn_storage"
      },
      "t_mapping(t_address,t_bool)": {
        "encoding": "mapping",
        "key": "t_address",
        "label": "mapping(address => bool)",
        "numberOfBytes": "32",
        "value": "t_bool"
      },
      "t_mapping(t_address,t_mapping(t_address,t_bool))": {
        "encoding": "mapping",
        "key": "t_address",
        "label": "mapping(address => mapping(address => bool))",
        "numberOfBytes": "32",
        "value": "t_mapping(t_address,t_bool)"
      },
      "t_mapping(t_address,t_struct(Account)3081_storage)": {
        "encoding": "mapping",
        "key": "t_address",
        "label": "mapping(address => struct CelestialSavingManager.Account)",
        "numberOfBytes": "32",
        "value": "t_struct(Account)3081_storage"
      },
      "t_mapping(t_address,t_uint256)": {
        "encoding": "mapping",
        "key": "t_address",
        "label": "mapping(address => uint256)",
        "numberOfBytes": "32",
        "value": "t_uint256"
      },
      "t_mapping(t_uint256,t_address)": {
        "encoding": "mapping",
        "key": "t_uint256",
        "label": "mapping(uint256 => address)",
        "numberOfBytes": "32",
        "value": "t_address"
      },
      "t_mapping(t_uint256,t_string_storage)": {
        "encoding": "mapping",
        "key": "t_uint256",
        "label": "mapping(uint256 => string)",
        "numberOfBytes": "32",
        "value": "t_string_storage"
      },
      "t_string_storage": {
        "encoding": "bytes",
        "label": "string",
        "numberOfBytes": "32"
      },
      "t_struct(Account)3081_storage": {
        "encoding": "inplace",
        "label": "struct CelestialSavingManager.Account",
        "members": [
          {
            "astId": 3076,
            "contract": "contracts/CelestialSavingManager.sol:CelestialSavingManager",
            "label": "balance",
            "offset": 0,
            "slot": "0",
            "type": "t_uint256"
          },
          {
            "astId": 3078,
            "contract": "contracts/CelestialSavingManager.sol:CelestialSavingManager",
            "label": "lastSummaryTime",
            "offset": 0,
            "slot": "1",
            "type": "t_uint256"
          },
          {
            "astId": 3080,
            "contract": "contracts/CelestialSavingManager.sol:CelestialSavingManager",
            "label": "redemptionTime",
            "offset": 0,
            "slot": "2",
            "type": "t_uint256"
          }
        ],
        "numberOfBytes": "96"
      },
      "t_uint256": {
        "encoding": "inplace",
        "label": "uint256",
        "numberOfBytes": "32"
      }
    }
  }
}